:100000002020002025010000210100002101000026
:1000100000000000000000000000000000000000E0
:1000200000000000000000000000000021010000AE
:10003000000000000000000021010000210100007C
:100040002101000021010000210100002101000028
:100050002101000021010000210100002101000018
:100060002101000021010000210100002101000008
:1000700021010000210100002101000021010000F8
:1000800021010000210100002101000021010000E8
:1000900021010000210100002101000021010000D8
:1000A00021010000210100002101000021010000C8
:1000B0000000000010B5064C2378002B07D1054B3B
:1000C000002B02D0044800E000BF0123237010BDC4
:1000D0000000002000000000B4040000084B10B530
:1000E000002B03D00749084800E000BF0748036819
:1000F000002B00D110BD064B002BFBD09847F9E731
:100100000000000004000020B4040000B40400005B
:100110000000000010B5014B984710BD9901000088
:10012000FEE7000010B5124A124B9A4209D0114B5B
:100130000F4A03E011681960043304320E498B4200
:10014000F8D30E4B02E000221A6004330C4A9342AB
:10015000F9D30C4AFF210C4B8B4393600B4A516837
:1001600080230B4353600A4B98470A4B9847FEE79E
:10017000B404000000000020000000200000002067
:100180002000002000ED00E00000000000400041E1
:100190004D040000ED02000010B5014B984710BD62
:1001A000ED01000010B5044B1C68044B984701009A
:1001B0002000034B984710BD1C000020C501000023
:1001C000E501000010B50300C8204000584302308C
:1001D0000321034B984783001B18580010BDC046ED
:1001E000350300000139FDD87047000010B5094BF8
:1001F0005A685A600220084B9847084B9847084BAA
:100200009847084B9847084B9847FF20074B98475B
:1002100010BDC04600400041BF020000690200005E
:100220008502000055020000BD02000031020000FE
:10023000C30707D5044A054B1A62044B5A68044B9E
:100240001A42FAD17047C04606010100001800406A
:10025000FD070000034B08229A71043A5A71033AD1
:100260001A71704700040040054AD3691B0A1B023B
:10027000F82149010B40D361012313617047C04647
:100280000010004082220C4B1A7538230A4AD35CB6
:100290009B07FAD4084BDB68DB06FBD5064A137DC7
:1002A000802149420B43DBB213753823024AD25CEA
:1002B0002A3B1A42F9D17047000C00407047802356
:1002C000DB059B780322134098420ED08022D20592
:1002D000FF239371937803218B4308401843907058
:1002E0008023DB059B79002BFAD0704710B50D4BAE
:1002F00098478021C9008823C022D205D1500A4ADC
:1003000020330A49D150C0210906D150FA2080007B
:10031000074B98478021C9009C23C022D205D150A9
:10032000F4E7C0461501000000280040000400402A
:10033000A5010000002243088B4274D303098B42BD
:100340005FD3030A8B4244D3030B8B4228D3030CA5
:100350008B420DD3FF22090212BA030C8B4202D347
:100360001212090265D0030B8B4219D300E0090A6F
:10037000C30B8B4201D3CB03C01A5241830B8B4278
:1003800001D38B03C01A5241430B8B4201D34B0361
:10039000C01A5241030B8B4201D30B03C01A5241C6
:1003A000C30A8B4201D3CB02C01A5241830A8B424B
:1003B00001D38B02C01A5241430A8B4201D34B0234
:1003C000C01A5241030A8B4201D30B02C01A524198
:1003D000CDD2C3098B4201D3CB01C01A524183094C
:1003E0008B4201D38B01C01A524143098B4201D386
:1003F0004B01C01A524103098B4201D30B01C01AB1
:100400005241C3088B4201D3CB00C01A524183082A
:100410008B4201D38B00C01A524143088B4201D357
:100420004B00C01A5241411A00D2014652411046B7
:100430007047FFE701B5002000F006F802BDC04696
:100440000029F7D076E770477047C04670B50026A0
:100450000C4D0D4C641BA410A64209D1002600F0DF
:1004600019F80A4D0A4C641BA410A64205D170BDB0
:10047000B300EB5898470136EEE7B300EB589847C6
:100480000136F2E7A0040000A0040000A004000070
:10049000A4040000F8B5C046F8BC08BC9E467047EE
:1004A000DD000000F8B5C046F8BC08BC9E467047A9
:0404B000B500000093
:00000001FF
